:020000040800F2
:10000000B004002001010008170C0008290A0008AC
:10001000150C00086D0100084D0D000800000000DF
:100020000000000000000000000000001F0C00089D
:100030009D010008000000001D0C0008E70C0008EE
:100040001B0100081B0100081B0100081B01000820
:100050001B0100081B0100081B0100081B01000810
:100060001B0100081B0100081B0100081B01000800
:100070001B0100081B0100081B0100081B010008F0
:100080001B0100081B0100081B0100081B010008E0
:100090001B0100081B0100081B0100081B010008D0
:1000A0001B0100081B0100081B0100081B010008C0
:1000B0001B0100081B010008000000001B010008D4
:1000C0001B01000800000000000000001B010008E8
:1000D000000000001B0100081B01000800000000D8
:1000E0009F0100081B0100081B010008DFF80CD06D
:1000F00000F02AF800480047950D0008B0040020E1
:100100000648804706480047FEE7FEE7FEE7FEE7B1
:10011000FEE7FEE7FEE7FEE7FEE7FEE74B0D000821
:10012000ED000008D2B201E000F8012B491EFBD21D
:1001300070470022F6E710B513460A4604461946F2
:10014000FFF7F0FF204610BD064C074D06E0E068C3
:1001500040F0010394E8070098471034AC42F6D30E
:10016000FFF7C8FF2C0E00084C0E0008FEE770B524
:1001700000F062FD0024204600F058FD002000F051
:100180004FFD0025002000F0C5FC6D1CEDB2402D98
:10019000F8D3641CE4B2082CEDD370BD704710B5E1
:1001A0004FF4806000F02CF84FF4006000F028F865
:1001B0004FF4805000F024F84FF4005000F020F885
:1001C000BDE810404FF4804000F01AB870B5044606
:1001D00000F008F90546601C02D004480078044489
:1001E00000F000F9401BA042FAD370BDA00000202F
:1001F000B0F5806F02D10220FFF7B9BF7047000051
:10020000044910B50A68024202D00860FFF7F0FF07
:1002100010BD0000140401402DE9F84FDFF89C9157
:10022000002409F1040A0AF1040B23460F270BF1FD
:10023000040EBBE00125A5402A40AA4276D1DFF892
:1002400080C14E68A6EB0C0866452BD00DDC032E52
:1002500034D005DC36B3012E19D0022E2FD11BE08D
:10026000112E16D0122E2AD119E0B8F5881F19D0F8
:1002700006DCB8F5803F15D0B8F5801F1FD111E01E
:10028000B8F5001F0ED0B8F5041F18D10AE0CB68EE
:1002900015E0CB681B1D12E0CB6808330FE0CB687C
:1002A0000C330CE08B682BB1012B4FF0080303D00B
:1002B000456104E0042302E0056100E00023FF2A19
:1002C00001D8064601E000F104064FEA840501D991
:1002D000A5F12005D6F8008007FA05FC28EA0C08ED
:1002E00003FA05F548EA0508C6F800804D68ED00F8
:1002F0005BD5344DAE6946F00106AE61AD6924F0C0
:10030000030605F0010500952F4D06EB050CDCF802
:100310000850A607360F07FA06F825EA0805DFF8A1
:10032000AC80404503D14FF0000810E03DE0DFF81D
:10033000A080404502D14FF0010808E0DFF894802A
:10034000404502D14FF0020801E04FF0030808FADF
:1003500006F848EA0508CCF808804D68D9F800602E
:10036000ED034D4601D5164300E096432E604D68DF
:10037000DAF80060AD03554601D5164300E0964318
:100380002E604D68DBF80060ED025D4601D5164336
:1003900000E096432E604D68DEF80060AD027546C1
:1003A00001D5164300E096432E60641C0A6832FAB9
:1003B00004F57FF43FAFBDE8F88F00000004014072
:1003C0000000111000100240000001400008014030
:1003D000000C0140001001400AB10161704709049E
:1003E000FBE700000148806870470000A000002083
:1003F000024881680278114481607047A0000020A3
:10040000074810B5016841F010010160032000F0B9
:1004100075F8002000F006F800F024F8002010BD68
:100420000020024070B50D4D04464FF47A712878D3
:10043000B1FBF0F00A490968B1FBF0F000F0E0FA16
:1004400048B9102C07D200222146501E00F036F881
:1004500000206C6070BD012070BD0000A000002075
:10046000AC0000200C4808B5816941F001018161B0
:10047000816901F001010091C16941F08051C161C0
:10048000C06900F0805000900448416821F0E061AC
:1004900041F08061416008BD001002400000014051
:1004A000002809DB00F01F02012191404009800073
:1004B00000F1E020C0F8001170470000F0B40E4BCE
:1004C0001B680C46C3F30223C3F10705042D00D9B2
:1004D0000425191D072901D2002300E0DB1E012697
:1004E00006FA05F1491E214099409E40761E1640AD
:1004F0003143F0BC00F02FBC0CED00E0064900F0E9
:10050000070208684FF6FF03184040EA0220034A3A
:1005100010430860704700000CED00E00000FA0591
:10052000704700002DE9F0470F46050061D0434EAB
:10053000306800F00700B84209D2306820F00700A8
:1005400038433060306800F00700B84251D1286865
:100550003B4C810712D5400703D5606840F4E0604A
:1005600060602878000703D5606840F460506060E0
:100570006068A96820F0F000084360602878C00730
:1005800028D06868012810D02168022810D0890777
:1005900000292EDA616821F0030101436160FFF751
:1005A00021FF804641F288390DE021688903EFE799
:1005B0008901EDE7FFF716FFA0EB0801494502D9D5
:1005C0000320BDE8F0876068696800F00C00B0EBBC
:1005D000810FEFD1306800F00700B8420BD93068C6
:1005E00020F0070038433060306800F00700B84260
:1005F00001D00120E5E72878400705D56068E96863
:1006000020F4E060084360602878000706D5606841
:10061000296920F4605040EAC100606000F01EF8D3
:100620006168084AC1F30311515CC840064908607B
:1006300006480068FFF7F6FE0020C2E700200240EF
:10064000001002401C0E0008AC000020A400002096
:1006500001490120C86470470000424212A185B0E0
:100660000FC98DE80F0014A0144A00680490516867
:10067000134801F00C03042B10D0082B0ED1C1F34A
:100680008343C9031DF803000AD5516804AAC1F3C6
:100690004041515C0A4A5043B0FBF1F005B070474D
:1006A00008494843FAE70000020304050607080961
:1006B0000A0B0C0D0E0F101001020000001002407A
:1006C00000127A0000093D0010B5044CA068000635
:1006D00003D5FFF725FF8020A07210BD0010024057
:1006E0002DE9F84F040070D02078C04DC00749D0E4
:1006F0006868C0F38100012807D06868C0F38100F2
:10070000022809D16868C00306D52868800339D556
:1007100060680028E7D035E06068B0F5803F0BD016
:1007200010B1B0F5A02F11D0286820F480302860D7
:10073000286820F4802002E0286840F48030286097
:10074000606890B1FFF74EFE06460AE0286840F464
:1007500080202860F0E700BFFFF744FE801B64287C
:1007600073D828688003F7D50CE0FFF73BFE0646F8
:1007700005E000BFFFF736FE801B6428F0D828682C
:100780008003F7D420789A4E80074FF001094FF08C
:10079000000839D5686810F00C0F07D06868C0F3FE
:1007A0008100022809D16868C00306D42868800740
:1007B00014D52069012808D110E02069B0B1C6F82D
:1007C0000090FFF70FFE074605E00AE1FFF70AFE7B
:1007D000C01B0228C4D828688007F7D5286861693B
:1007E00020F0F80040EAC10028600DE0C6F8008063
:1007F000FFF7F8FD074604E0FFF7F4FDC01B0228F1
:1008000023D828688007F7D4207800072CD57948AA
:10081000A169D9B1C0F80090FFF7E4FD074604E0F4
:10082000FFF7E0FDC01B02280FD8686A8007F7D5E4
:1008300071484FF4FA510068B0FBF1F0009000BF2E
:100840000098411E0091FAD20EE080E0C0F80080CE
:10085000FFF7C8FD074604E0FFF7C4FDC01B0228F0
:1008600075D8686A8007F7D42078400760D5E869B2
:100870000027C00008D4E86940F08050E861E869CA
:10088000012700F0805000905C480168C90513D42E
:100890000168834641F480710160FFF7A3FD824641
:1008A00006E000BFFFF79EFDA0EB0A0064284ED8CB
:1008B000DBF80000C005F5D5E06801280AD008B1D2
:1008C000052813D0286A20F001002862286A20F049
:1008D000040002E0286A40F001002862E06841F26A
:1008E000883B98B1FFF77EFD82460BE0286A40F016
:1008F00004002862EEE700BFFFF774FDA0EB0A01D9
:1009000059455AD8286A8007F6D50CE0FFF76AFDEA
:10091000824605E0FFF766FDA0EB0A0159454CD879
:10092000286A8007F6D41FB1E86920F08050E8619A
:10093000E06988B36968C1F38101022944D00228C3
:10094000C6F8608004D0FFF74DFD044638E034E07F
:10095000FFF748FD074604E0FFF744FDC01B0228EF
:100960002BD828688001F7D4206AB0F5803F05D1E4
:100970006868A16820F4003008436860D4E9080181
:100980000843696821F4741108436860C6F86090F0
:10099000FFF728FD044606E025E000BFFFF722FD33
:1009A000001B022809D828688001F7D51BE000BF8A
:1009B000FFF718FD001B022802D90320BDE8F88FBD
:1009C00028688001F4D40EE00128F7D06868226A14
:1009D00000F48031914204D1616A00F470108842C1
:1009E00001D00120EAE70020E8E700000010024003
:1009F0000000424280044242AC00002000700040EF
:100A000010B5401EB0F1807F01D3012010BD4FF022
:100A1000E02460610F21601700F09DF90020A061C3
:100A200007202061002010BDFEE738B50824102300
:100A3000062805D8782903D80092224600F001F84C
:100A400038BD2DE9F8438146501E154698460822C8
:100A5000A2EBD802089E0C46C0B24A4519DBC5F18C
:100A60008001A14215DBC0F13F01A14201DB002062
:100A700006E0402C0FD3C0F17F01A1420BDB012027
:100A800000F0DAF843462A4621464846009600F030
:100A900009F9BDE8F883C0F14000A042F9DC3F2C21
:100AA000F7D8C4F14000C7B2E81BC5B2002000F07F
:100AB000C3F843463A4621464846009600F0F2F80D
:100AC000DDE7000070B5114D0446002220212846C4
:100AD000FFF782FC002210212846FFF77DFC01224F
:100AE00004212846FFF778FC0948016801F47F419A
:100AF0002143016000F02BF9002204212846FFF772
:100B00006BFCBDE8704000F022B90000001001400D
:100B10000C0C014070B5114D0446012204212846F9
:100B2000FFF75AFC002210212846FFF755FC01224E
:100B300020212846FFF750FC0948016801F47F4155
:100B40002143016000F003F9002204212846FFF749
:100B500043FCBDE8704000F0FAB80000001001400E
:100B60000C0C01402DE9F04186B00024254800948A
:100B7000019402940394816941F0080181618169C3
:100B800001F008010491816941F0200181618169CE
:100B900001F020010491816941F0100181618069B7
:100BA000DFF8648000F0100004900022FF2140462E
:100BB000FFF712FC154F002237213846FFF70CFCD7
:100BC000FF2001250226CDE90005CDE90246694650
:100BD0004046FFF721FB3720CDE90005CDE902466D
:100BE00069463846FFF718FB4FF4F8400090084874
:100BF000CDE9010569464046FFF70EFB06B0BDE8AA
:100C0000F081000000100240000C01400010014083
:100C100000002110FEE7FFF757FDFEE77047704721
:100C200000F03F0040F04000FFF74CBF00F007002D
:100C300040F0B800FFF746BF10B5124CA8B101282C
:100C40001DD002281DD1002201212046FFF7C4FB40
:100C50000520FFF7BBFA002202212046FFF7BCFB6C
:100C6000BDE810400520FFF7B1BA0022012120465F
:100C7000FFF7B2FB0520FFF7A9FA0122ECE70122FA
:100C8000E2E710BD0010014000F03F0040F0C0005E
:100C9000FFF718BF012803D05FF03E00FFF712BF37
:100CA0003F20FBE72DE9F047984617468A468146E4
:100CB0000024089E12E000BF09EB0400C0B2FFF759
:100CC000B5FF5046FFF7ACFF002504E03078FFF792
:100CD00021FF6D1C761CBD42F8DB641CB4EBD80F01
:100CE000EADBBDE8F087FFF783BB30B58FB0282182
:100CF0006846FFF71EFA14210AA8FFF71AFA012125
:100D00000804CDE900100024029402250491CDE9E5
:100D100007504FF4E01009906846FFF7E1FC08B176
:100D200072B6FEE70F20CDE90A054FF48060CDE9E9
:100D30000C4002210AA80E94FFF7F4FB08B172B62A
:100D4000FEE7FFF785FC0FB030BD7047FEE764207B
:100D5000401EFDD170470907090E002804DB00F191
:100D6000E02080F80014704700F00F0000F1E02050
:100D700080F8141D704702E008C8121F08C1002A3D
:100D8000FAD170477047002001E001C1121F002A0C
:100D9000FBD1704708B5FFF733FB0826FFF7A5FF27
:100DA000FFF7E0FE002211462820FFF787FB2820EE
:100DB000FFF776FB4FF000084746174D0120FFF77D
:100DC00069FF00242A4639464046FFF72EFEB8192F
:100DD000641CE4B21035C7B2082CF3D33220FFF7FD
:100DE000F5F900242046FFF74FFF0520FFF7EEF945
:100DF000641CE4B2402CF5D90220FFF7B8F906488C
:100E000010238030002100901A460846FFF719FE93
:100E10001E20FFF7DBF9CDE70000002000000000F6
:100E20000000000001020304060708094C0E000838
:100E300000000020B0000000760D0008FC0E000845
:100E4000B000002000040000860D000808F800F83B
:100E500000F8080000033E013E03000010F000808F
:100E600080800000203F210000203F200000808083
:100E700080800000001F202020201F0000000000B4
:100E80000000000000000000000000000000808062
:100E90008000000000192424123F20008080808000
:100EA00080808000203F20003F20003F00000000A5
:100EB000000000000000000000000000000808F82A
:100EC000080800000020203F202000000000000053
:100ED00070F8FCFCFCF87000000000000000040644
:100EE000031F3F3F3F1F03060400000001000000F6
:0C0EF00010000000000000000024F400CE
:04000005080000ED02
:00000001FF
