:020000040800F2
:100000003804002001010008430C00086D0A0008B4
:10001000410C00086D010008690D00080000000097
:100020000000000000000000000000004B0C000871
:100030009D01000800000000490C0008030D0008A5
:100040001B0100081B0100081B0100081B01000820
:100050001B0100081B0100081B0100081B01000810
:100060001B0100081B0100081B0100081B01000800
:100070001B0100081B0100081B0100081B010008F0
:100080001B0100081B0100081B0100081B010008E0
:100090001B0100081B0100081B0100081B010008D0
:1000A0001B0100081B0100081B0100081B010008C0
:1000B0001B0100081B010008000000001B010008D4
:1000C0001B01000800000000000000001B010008E8
:1000D000000000001B0100081B01000800000000D8
:1000E0009F0100081B0100081B010008DFF80CD06D
:1000F00000F02AF800480047B10D0008380400203D
:100100000648804706480047FEE7FEE7FEE7FEE7B1
:10011000FEE7FEE7FEE7FEE7FEE7FEE7670D000805
:10012000ED000008D2B201E000F8012B491EFBD21D
:1001300070470022F6E710B513460A4604461946F2
:10014000FFF7F0FF204610BD064C074D06E0E068C3
:1001500040F0010394E8070098471034AC42F6D30E
:10016000FFF7C8FF300E0008500E0008FEE770B51C
:1001700000F078FD0024204600F06EFD002000F025
:1001800065FD0025002000F0DBFC6D1CEDB2402D6C
:10019000F8D3641CE4B2082CEDD370BD704710B5E1
:1001A0004FF4806000F04EF84FF4006000F04AF821
:1001B0004FF4805000F046F84FF4005000F042F841
:1001C000BDE810404FF4804000F03CB870B50446E4
:1001D00000F02AF90546601C02D004480078044467
:1001E00000F022F9401BA042FAD370BD2400002089
:1001F00010B5B0F5806F13D0104CB0F5006F16D06D
:10020000B0F5805F06D00E4CB0F5005F0FD0B0F5B2
:10021000804F0BD10A20FFF7D9FF2078401E04E061
:10022000BDE810400220FFF7A2BF207010BD0A20D9
:10023000FFF7CCFF2078401CF7E700000200002009
:1002400001000020044910B50A68024202D008608B
:10025000FFF7CEFF10BD0000140401402DE9F84F58
:10026000DFF89C91002409F1040A0AF1040B2346EB
:100270000F270BF1040EBBE00125A5402A40AA423E
:1002800076D1DFF880C14E68A6EB0C0866452BD00E
:100290000DDC032E34D005DC36B3012E19D0022E2E
:1002A0002FD11BE0112E16D0122E2AD119E0B8F54D
:1002B000881F19D006DCB8F5803F15D0B8F5801F2F
:1002C0001FD111E0B8F5001F0ED0B8F5041F18D1EA
:1002D0000AE0CB6815E0CB681B1D12E0CB68083341
:1002E0000FE0CB680C330CE08B682BB1012B4FF087
:1002F000080303D0456104E0042302E0056100E047
:100300000023FF2A01D8064601E000F104064FEA67
:10031000840501D9A5F12005D6F8008007FA05FC6F
:1003200028EA0C0803FA05F548EA0508C6F8008033
:100330004D68ED005BD5344DAE6946F00106AE6107
:10034000AD6924F0030605F0010500952F4D06EB7D
:10035000050CDCF80850A607360F07FA06F825EA60
:100360000805DFF8AC80404503D14FF0000810E0ED
:100370003DE0DFF8A080404502D14FF0010808E0E1
:10038000DFF89480404502D14FF0020801E04FF0C1
:10039000030808FA06F848EA0508CCF808804D6812
:1003A000D9F80060ED034D4601D5164300E09643B1
:1003B0002E604D68DAF80060AD03554601D516434E
:1003C00000E096432E604D68DBF80060ED025D466C
:1003D00001D5164300E096432E604D68DEF80060BC
:1003E000AD02754601D5164300E096432E60641CAD
:1003F0000A6832FA04F57FF43FAFBDE8F88F0000D9
:1004000000040140000011100010024000000140F3
:1004100000080140000C0140001001400AB10161D8
:1004200070470904FBE7000001488068704700003E
:1004300024000020024881680278114481607047DE
:1004400024000020074810B5016841F01001016048
:10045000032000F075F8002000F006F800F024F802
:10046000002010BD0020024070B50D4D04464FF431
:100470007A712878B1FBF0F00A490968B1FBF0F015
:1004800000F0E0FA48B9102C07D200222146501E95
:1004900000F036F800206C6070BD012070BD0000D7
:1004A00024000020300000200C4808B5816941F08C
:1004B00001018161816901F001010091C16941F08F
:1004C0008051C161C06900F08050009004484168CB
:1004D00021F0E06141F08061416008BD0010024000
:1004E00000000140002809DB00F01F0201219140BB
:1004F0004009800000F1E020C0F8001170470000C2
:10050000F0B40E4B1B680C46C3F30223C3F107057E
:10051000042D00D90425191D072901D2002300E06C
:10052000DB1E012606FA05F1491E214099409E4036
:10053000761E16403143F0BC00F01BBC0CED00E011
:10054000064900F0070208684FF6FF03184040EA2A
:100550000220034A10430860704700000CED00E0E1
:100560000000FA05704700002DE9F0470F4605002E
:1005700061D0434E306800F00700B84209D23068BD
:1005800020F0070038433060306800F00700B842C0
:1005900051D128683B4C810712D5400703D56068CC
:1005A00040F4E06060602878000703D5606840F49C
:1005B000605060606068A96820F0F00008436060E7
:1005C0002878C00728D06868012810D02168022840
:1005D00010D0890700292EDA616821F00301014358
:1005E0006160FFF721FF804641F288390DE0216804
:1005F0008903EFE78901EDE7FFF716FFA0EB08019C
:10060000494502D90320BDE8F0876068696800F0B9
:100610000C00B0EB810FEFD1306800F00700B8425A
:100620000BD9306820F0070038433060306800F0A4
:100630000700B84201D00120E5E72878400705D53A
:100640006068E96820F4E06008436060287800078B
:1006500006D56068296920F4605040EAC1006060F6
:1006600000F01EF86168084AC1F30311515CC840EC
:100670000649086006480068FFF7F6FE0020C2E75A
:100680000020024000100240200E00083000002030
:100690002800002001490120C86470470000424240
:1006A00012A185B00FC98DE80F0014A0144A00688C
:1006B00004905168134801F00C03042B10D0082B50
:1006C0000ED1C1F38343C9031DF803000AD5516855
:1006D00004AAC1F34041515C0A4A5043B0FBF1F017
:1006E00005B0704708494843FAE7000002030405D3
:1006F000060708090A0B0C0D0E0F1010010200006E
:100700000010024000127A0000093D0010B5044CB0
:10071000A068000603D5FFF725FF8020A07210BD5A
:10072000001002402DE9F84F040070D02078C04D31
:10073000C00749D06868C0F38100012807D0686805
:10074000C0F38100022809D16868C00306D5286873
:10075000800339D560680028E7D035E06068B0F5DF
:10076000803F0BD010B1B0F5A02F11D0286820F435
:1007700080302860286820F4802002E0286840F457
:1007800080302860606890B1FFF74EFE06460AE0B0
:10079000286840F480202860F0E700BFFFF744FE9F
:1007A000801B642873D828688003F7D50CE0FFF716
:1007B0003BFE064605E000BFFFF736FE801B6428BF
:1007C000F0D828688003F7D420789A4E80074FF03D
:1007D00001094FF0000839D5686810F00C0F07D0F8
:1007E0006868C0F38100022809D16868C00306D494
:1007F0002868800714D52069012808D110E02069F5
:10080000B0B1C6F80090FFF70FFE074605E00AE119
:10081000FFF70AFEC01B0228C4D828688007F7D556
:100820002868616920F0F80040EAC10028600DE006
:10083000C6F80080FFF7F8FD074604E0FFF7F4FD77
:10084000C01B022823D828688007F7D42078000727
:100850002CD57948A169D9B1C0F80090FFF7E4FD23
:10086000074604E0FFF7E0FDC01B02280FD8686AC6
:100870008007F7D571484FF4FA510068B0FBF1F0EA
:10088000009000BF0098411E0091FAD20EE080E077
:10089000C0F80080FFF7C8FD074604E0FFF7C4FD7D
:1008A000C01B022875D8686A8007F7D420784007F3
:1008B00060D5E8690027C00008D4E86940F080509E
:1008C000E861E869012700F0805000905C48016809
:1008D000C90513D40168834641F480710160FFF7B4
:1008E000A3FD824606E000BFFFF79EFDA0EB0A00D5
:1008F00064284ED8DBF80000C005F5D5E068012873
:100900000AD008B1052813D0286A20F00100286217
:10091000286A20F0040002E0286A40F00100286202
:10092000E06841F2883B98B1FFF77EFD82460BE01C
:10093000286A40F004002862EEE700BFFFF774FD6C
:10094000A0EB0A0159455AD8286A8007F6D50CE071
:10095000FFF76AFD824605E0FFF766FDA0EB0A019E
:1009600059454CD8286A8007F6D41FB1E86920F0B1
:100970008050E861E06988B36968C1F381010229A8
:1009800044D00228C6F8608004D0FFF74DFD04462D
:1009900038E034E0FFF748FD074604E0FFF744FD88
:1009A000C01B02282BD828688001F7D4206AB0F534
:1009B000803F05D16868A16820F400300843686072
:1009C000D4E908010843696821F474110843686098
:1009D000C6F86090FFF728FD044606E025E000BF5A
:1009E000FFF722FD001B022809D828688001F7D5EF
:1009F0001BE000BFFFF718FD001B022802D90320EF
:100A0000BDE8F88F28688001F4D40EE00128F7D003
:100A10006868226A00F48031914204D1616A00F46E
:100A20007010884201D00120EAE70020E8E70000CA
:100A30000010024000004242800442423000002088
:100A40000070004010B5401EB0F1807F01D301203E
:100A500010BD4FF0E02460610F21601700F089F9AC
:100A60000020A06107202061002010BDFEE72DE9D5
:100A7000F8438146501E154698460822A2EBD8023C
:100A8000089E0C46C0B24A4519DBC5F18001A1425F
:100A900015DBC0F13F01A14201DB002006E0402C44
:100AA0000FD3C0F17F01A1420BDB012000F0DAF887
:100AB00043462A4621464846009600F001F9BDE823
:100AC000F883C0F14000A042F9DC3F2CF7D8C4F114
:100AD0004000C7B2E81BC5B2002000F0C3F843468F
:100AE0003A4621464846009600F0EAF8DDE7000065
:100AF00070B5114D0446002220212846FFF78EFCD8
:100B0000002210212846FFF789FC012204212846F3
:100B1000FFF784FC0948016801F47F41214301602B
:100B200000F023F9002204212846FFF777FCBDE8F6
:100B3000704000F01AB90000001001400C0C014098
:100B400070B5114D0446012204212846FFF766FCCA
:100B5000002210212846FFF761FC012220212846AF
:100B6000FFF75CFC0948016801F47F412143016003
:100B700000F0FBF8002204212846FFF74FFCBDE8F7
:100B8000704000F0F2B80000001001400C0C014071
:100B90002DE9F04186B00024254800940194029488
:100BA0000394816941F008018161816901F00801C4
:100BB0000491816941F020018161816901F0200186
:100BC0000491816941F0100181618069DFF86480DE
:100BD00000F0100004900022FF214046FFF71EFCA9
:100BE000154F002237213846FFF718FCFF2001255A
:100BF0000226CDE90005CDE9024669464046FFF7E9
:100C00002DFB3720CDE90005CDE90246694638467F
:100C1000FFF724FB4FF4F84000900848CDE90105A8
:100C200069464046FFF71AFB06B0BDE8F0810000B8
:100C300000100240000C0140001001400000211093
:100C4000FEE7FFF763FDFEE77047704700F03F00E7
:100C500040F04000FFF74CBF00F0070040F0B80044
:100C6000FFF746BF10B5124CA8B101281DD00228CD
:100C70001DD1002201212046FFF7D0FB0520FFF700
:100C8000A5FA002202212046FFF7C8FBBDE810406C
:100C90000520FFF79BBA002201212046FFF7BEFB8B
:100CA0000520FFF793FA0122ECE70122E2E710BDED
:100CB0000010014000F03F0040F0C000FFF718BFF7
:100CC0002DE9F047984617468A4681460024089E3B
:100CD00012E000BF09EB0400C0B2FFF7BDFF5046B1
:100CE000FFF7B4FF002504E03078FFF729FF6D1C03
:100CF000761CBD42F8DB641CB4EBD80FEADBBDE820
:100D0000F087FFF797BB30B58FB028216846FFF713
:100D100010FA14210AA8FFF70CFA01210804CDE902
:100D200000100024029402250491CDE907504FF4ED
:100D3000E01009906846FFF7F5FC08B172B6FEE7CF
:100D40000F20CDE90A054FF48060CDE90C40022167
:100D50000AA80E94FFF708FC08B172B6FEE7FFF789
:100D600099FC0FB030BD7047FEE76420401EFDD1F6
:100D700070470907090E002804DB00F1E02080F825
:100D80000014704700F00F0000F1E02080F8141DFF
:100D9000704702E008C8121F08C1002AFAD1704744
:100DA0007047002001E001C1121F002AFBD17047EB
:100DB00008B5FFF747FB00273C463D463E46B9468F
:100DC000FFF7A1FFFFF7E4FE002201212820FFF733
:100DD00097FB2820FFF786FBDFF83C8010231A469C
:100DE00021463846CDF80080FFF741FE0B4C4746C0
:100DF0002078A84205D1A078B04202D16178494557
:100E0000F6D06078FFF756FF009710231A46A178B6
:100E10002078FFF72CFEEBE7030000200000002005
:100E2000000000000000000001020304060708099A
:100E3000500E00080000002034000000920D000851
:100E4000840E00083400002004040000A20D0008F5
:100E50000000000000000070F8FCFCFCF8700000CE
:100E600000000000000406031F3F3F3F1F0306046D
:100E70000000000001000000100000000000000061
:040E80000024F40056
:04000005080000ED02
:00000001FF
