:020000040800F2
:100000008804002001010008DF0D0008450C0008ED
:10001000DD0D000849010008790F0008000000000C
:10002000000000000000000000000000030E0008B7
:100030004B01000800000000010E0008C70E000878
:100040001B0100081B0100081B0100081B01000820
:100050001B0100081B0100081B0100081B01000810
:100060001B0100081B0100081B0100081B01000800
:100070001B0100081B0100081B0100081B010008F0
:100080001B0100081B0100081B0100081B010008E0
:100090001B0100081B0100081B0100081B010008D0
:1000A0001B0100081B0100081B0100081B010008C0
:1000B0001B0100081B010008000000001B010008D4
:1000C0001B01000800000000000000001B010008E8
:1000D000000000001B0100081B01000800000000D8
:1000E0001B0100081B0100081B010008DFF80CD0F1
:1000F00000F018F800480047A10F0008880400200D
:100100000648804706480047FEE7FEE7FEE7FEE7B1
:10011000FEE7FEE7FEE7FEE7FEE7FEE7310F000839
:10012000ED000008064C074D06E0E06840F00103D2
:1001300094E8070098471034AC42F6D3FFF7DAFF93
:10014000F80F000818100008FEE77047416170477B
:100150000161704731B500F0E7F8044600F0E4F8BB
:100160000099001B8842F9D338BD00002DE9F84FF3
:10017000DFF894A100220AF1040B14464FF0010CA1
:100180004FF00F090BF1040E0B680CFA04F52B402D
:10019000AB4271D15D4E4F68A7EB0608B7422BD03A
:1001A0000DDC032F34D005DC37B3012F19D0022F1B
:1001B0002FD11BE0112F16D0122F2AD119E0B8F53C
:1001C000881F19D006DCB8F5803F15D0B8F5801F20
:1001D0001FD111E0B8F5001F0ED0B8F5041F18D1DB
:1001E0000AE0CA6815E0CA68121D12E0CA6808323F
:1001F0000FE0CA680C320CE08A682AB1012A4FF07D
:10020000080203D0456104E0042202E0056100E039
:100210000022FF2B01D8074601E000F104074FEA56
:10022000840601D9A6F120063D6809FA06F825EAF8
:10023000080502FA06F645EA06053D604D68ED0040
:100240005CD5334DAE6946F00106AE61AD6924F070
:10025000030605F0010500952E4D7719BD68A60728
:10026000360F09FA06F825EA0805DFF8AC804045A4
:1002700003D14FF0000810E040E0DFF8A0804045D7
:1002800002D14FF0010808E0DFF89480404502D128
:100290004FF0020801E04FF0030808FA06F848EAB8
:1002A0000508C7F808804D68ED0305D5DAF8005059
:1002B0001D43CAF8005004E0DAF800609E43CAF813
:1002C00000604D68DBF80060AD035D4601D51E435C
:1002D00000E09E432E604D68DEF80060ED0275463A
:1002E00001D51E4300E09E432E604D68AD020D4DCA
:1002F0002E6801D51E4300E09E432E60641C102C26
:10030000FFF442AFBDE8F88F000401400000111077
:10031000001002400000014000080140000C0140B4
:10032000001001400C0401400148006870470000C3
:100330008400002002480168491C016070470000E9
:1003400084000020074810B5016841F010010160E9
:10035000032000F073F8002000F006F800F016F813
:10036000002010BD0020024010B5044600F03CF90A
:100370004FF47A71B0FBF1F000F04CFC0022214602
:10038000501E00F03BF8002010BD00001A4808B5D0
:10039000816941F001018161806900F001000090F4
:1003A000032000F04BF8002211466FF00B0000F024
:1003B00025F8002211466FF00A0000F01FF8002215
:1003C00011466FF0090000F019F800221146501F85
:1003D00000F014F800221146101F00F00FF8002260
:1003E0001146901E00F00AF80022BDE808401146B0
:1003F000501E00F003B8000000100240F0B40E4B95
:100400001B680C46C3F30223C3F10705042D00D972
:100410000425191D072901D2002300E0DB1E012657
:1004200006FA05F1491E214099409E40761E16406D
:100430003143F0BC00F0D4BC0CED00E0064900F004
:10044000070208684FF6FF03184040EA0220034AFB
:1004500010430860704700000CED00E00000FA0552
:100460002DE9F047DFF8708105460E46D8F8000008
:1004700000F00700B0420CD2D8F8001021F00701BC
:100480003143C8F80010D8F8000000F00700B0426F
:1004900077D12878514C800705D56068A96820F08D
:1004A000F000084360602878C00759D069680120CF
:1004B00001290DD0022929D05FF0020393FAA3F29B
:1004C000B2FA82F242F02002520904D0226803E01C
:1004D0004FF40033F2E7626A93FAA3F3B3FA83F3BB
:1004E00003F01F03984002424BD0606820F00300E5
:1004F00008436060FFF718FF6968074641F28830DB
:1005000001290DD00229814617D025E04FF0007354
:10051000D4E700BFFFF708FFC11B494501D918E028
:1005200081466068C0F381000128F3D118E000BF64
:10053000FFF7FAFEC11B49450BD86068C0F3810084
:100540000228F5D10CE000BFFFF7EEFEC11B4945C4
:1005500002D90320BDE8F087606810F00C0FF3D1DA
:10056000D8F80010404601F00701B1420BD90168EC
:1005700021F0070131430160006800F00700B0423C
:1005800001D00120E6E72878400705D56068E968D2
:1005900020F4E060084360602878000706D56068B2
:1005A000296920F4605040EAC100606000F022F840
:1005B0006168F02292FAA2F201F0F001B2FA82F23E
:1005C000D140074A515CC840064908600020FFF747
:1005D000CBFE0020BEE700000020024000100240D9
:1005E000E80F000880000020014800687047000004
:1005F0008000002010B519A385B00FCB8DE80F0047
:100600001AA01B4B006804905A681A4802F00C01AB
:1006100004291DD008291BD14FF4701494FAA4F4B6
:1006200002F47011B4FA84F4E140D2031DF8011011
:1006300010D55A684FF4003393FAA3F302F4003252
:10064000B3FA83F3DA4004AB9A5CB0FBF2F04843B0
:1006500005B010BD08484843FAE70000020304054E
:10066000060708090A0B0C0D0E0F101001020000FE
:100670000010024000127A0000093D002DE9F84FF9
:1006800004460078F74DC0074FF0010625D0686892
:100690007704C0F38100012807D06868C0F38100A7
:1006A00002281BD16868C00318D597FAA7F0B0FAE2
:1006B00080F040F02000400901D0286800E0686A1E
:1006C00097FAA7F1B1FA81F101F01F0106FA01F1E1
:1006D00008425ED0606800287CD05AE06068B0F5BF
:1006E000803F0BD010B1B0F5A02F11D0286820F4B6
:1006F00080302860286820F4802002E0286840F4D8
:1007000080302860606828B3FFF70EFE80460BE05B
:10071000286840F480202860F0E700BFFFF704FE5F
:10072000A0EB0800642871D897FAA7F0B0FA80F01F
:1007300040F02000400901D0286800E0686A97FA7C
:10074000A7F1B1FA81F101F01F0106FA01F10842A7
:10075000E4D01EE0FFF7E8FD804605E0FFF7E4FD8A
:10076000A0EB08006428DED897FAA7F0B0FA80F072
:1007700040F02000400901D0286800E0686A97FA3C
:10078000A7F1B1FA81F101F01F0106FA01F1084267
:10079000E4D12078DFF8D08280074FF000094FF0D5
:1007A00002075BD568684FF0F80B10F00C0F07D00C
:1007B0006868C0F3810002281CD16868C00319D49E
:1007C00097FAA7F0B0FA80F040F02000400902D07C
:1007D000286801E08BE0686A97FAA7F1B1FA81F125
:1007E00001F01F0106FA01F108422CD0206901280E
:1007F0007DD128E0206990B396FAA6F0B0FA80F097
:1008000048F82060FFF790FD824607E011E100BF45
:10081000FFF78AFDA0EB0A00022884D897FAA7F018
:10082000B0FA80F040F02000400901D0286800E0D4
:10083000686A97FAA7F1B1FA81F101F01F0106FA8F
:1008400001F10842E4D028689BFAABF26169B2FA80
:1008500082F220F0F80091400843286025E0FFE78D
:1008600096FAA6F1B1FA81F148F82190FFF75CFD04
:10087000824605E0FFF758FDA0EB0A000228CCD81D
:1008800097FAA7F0B0FA80F040F02000400901D0BC
:10089000286800E0686A97FAA7F1B1FA81F101F0DF
:1008A0001F0106FA01F10842E4D1207800076ED555
:1008B000A069B8B396FAA6F0B0FA80F008EB800011
:1008C000C0F88064FFF730FD824605E0FFF72CFD9D
:1008D000A0EB0A000228A0D897FAA7F0B0FA80F09F
:1008E00040F06000B6EB501F02D128680CE062E1D6
:1008F00097FAA7F0B0FA80F040F06000B7EB501F15
:1009000001D1286A00E0686A97FAA7F1B1FA81F18B
:1009100001F01F0106FA01F21042D7D00120FFF7C3
:1009200019FC34E0FFE796FAA6F1B1FA81F108EB81
:100930008101C1F88094FFF7F7FC824606E000BF12
:10094000FFF7F2FCA0EB0A00022872D897FAA7F092
:10095000B0FA80F040F06000B6EB501F01D128687B
:100960000BE097FAA7F0B0FA80F040F06000B7EB28
:10097000501F01D1286A00E0686A97FAA7F1B1FA1E
:1009800081F101F01F0106FA01F21042D8D120785E
:10099000400765D5E86940F08050E861E869DFF814
:1009A000CCB000F080500090DBF8001041F4807172
:1009B000CBF80010FFF7B8FC824605E0FFF7B4FC67
:1009C000A0EB0A00642834D8DBF80000C005F5D598
:1009D000E06801280AD008B1052813D0286A20F061
:1009E00001002862286A20F0040002E0286A40F032
:1009F00001002862E06841F2883B90B3FFF794FC65
:100A000082460BE0286A40F004002862EEE700BF4F
:100A1000FFF78AFCA0EB0A0159450AD897FAA7F01C
:100A2000B0FA80F040F04000B6EB501F02D12868C9
:100A30000CE0A3E097FAA7F0B0FA80F040F0400095
:100A4000B7EB501F01D1286A00E0686A97FAA7F156
:100A5000B1FA81F101F01F0206FA02F10842D7D083
:100A600031E005E00010024000004242007000400A
:100A7000FFF75AFC824605E0FFF756FCA0EB0A019F
:100A800059457BD897FAA7F0B0FA80F040F04000C3
:100A9000B6EB501F01D128680BE097FAA7F0B0FA27
:100AA00080F040F04000B7EB501F01D1286A00E011
:100AB000686A97FAA7F1B1FA81F101F01F0206FA0C
:100AC00002F10842D8D1E06980B36968C1F38101BD
:100AD000022970D04FF080714F000228484609D09B
:100AE00091FAA1F1B1FA81F148F82100FFF71CFC5D
:100AF000044669E08A4691FAA1F1B1FA81F1C14652
:100B000048F82100FFF710FC804605E0FFF70CFCD9
:100B1000A0EB0800022854D897FAA7F0B0FA80F0AA
:100B200040F02000400902D0286801E061E0686AD6
:100B300097FAA7F1B1FA81F101F01F0106FA01F16C
:100B40000842E3D1206AB0F5803F05D16868A1680A
:100B500020F4003008436860D4E90801084369685C
:100B600021F47411084368609AFAAAF0B0FA80F090
:100B700049F82060FFF7D8FB044606E021E000BFFB
:100B8000FFF7D2FB001B02281BD897FAA7F0B0FA98
:100B900080F040F02000400901D0286800E0686A39
:100BA00097FAA7F1B1FA81F101F01F0106FA01F1FC
:100BB0000842E5D01DE01EE0FFF7B6FB001B02284F
:100BC00002D90320BDE8F88F97FAA7F0B0FA80F0B9
:100BD00040F02000400901D0286800E0686A97FAD8
:100BE000A7F1B1FA81F101F01F0106FA01F1084203
:100BF000E2D10020E6E70120E4E74FF0E0210428FD
:100C0000086903D020F004000861704740F0040038
:100C1000FAE7704710B5401EB0F1807F01D3012084
:100C200010BD4FF0E02460610F21601700F0D8F88C
:100C30000020A06107202061002010BD10B5FFF743
:100C4000E8FF10BDFEE738B51446082210230094D3
:100C500000F001F838BD2DE9F8438046501E1546D6
:100C600099460922A2EBD902089E0C46C0B2424521
:100C70001EDBB8F1000F1BD0C5F18101A14217DBCB
:100C8000002C15D0C0F14001A14201DB002006E09C
:100C9000412C0FD3C0F18001A1420BDB012000F0F9
:100CA000BDF84B462A4621464046009600F0EAF839
:100CB000BDE8F883C0F14100A042F9DC402CF7D830
:100CC000C4F14000C7B2E81BC5B2002000F0A6F88E
:100CD0004B463A4621464046009600F0D3F8DDE701
:100CE00070B50F4D044680212846FFF72FFA4021AA
:100CF0002846FFF72BFA20212846FFF729FA094852
:100D0000016801F47F412143016000F036F92021A0
:100D10002846FFF71BFABDE8704000F02EB900002E
:100D2000001001400C0C014070B50F4D044620210D
:100D30002846FFF70DFA40212846FFF707FA8021E1
:100D40002846FFF705FA0948016801F47F4121436D
:100D5000016000F012F920212846FFF7F7F9BDE8FD
:100D6000704000F00AB90000001001400C0C014076
:100D700030B5174885B0816941F00401816181690E
:100D800001F004010491816941F0080181618169E8
:100D900001F008010491816941F0100181618069CD
:100DA000012400F010000490FF20CDE9000402258A
:100DB000694603950748FFF7D9F9F820CDE9000403
:100DC000694603950448FFF7D1F905B030BD00002E
:100DD00000100240000C014000100140FEE7704787
:100DE0000907090E002806DA00F00F0000F1E020E4
:100DF00080F8141D704700F1E02080F8001470475F
:100E00007047704700F03F0040F04000FFF768BFB8
:100E100000F0070040F0B800FFF762BF10B5144CB7
:100E200098B101281DD0022820D108212046FFF7C3
:100E30008DF90520FFF78EF910212046FFF786F97E
:100E4000BDE810400520FFF785B908212046FFF7CF
:100E50007DF90520FFF77EF910212046FFF778F98C
:100E6000EEE708212046FFF773F9E2E710BD000026
:100E700000100140012803D05FF03E00FFF730BFB3
:100E80003F20FBE72DE9F047984617468A46814602
:100E90000024089E12E000BF09EB0400C0B2FFF777
:100EA000B7FF5046FFF7AEFF002504E03078FFF7AC
:100EB0003BFF6D1C761CBD42F8DB641CB4EBD80F05
:100EC000EADBBDE8F08710B5FFF734FABDE8104063
:100ED000FFF7B4BE10B590B002200090012004903E
:100EE00010200024059007946846FFF7C7FB00B167
:100EF000FEE70F20CDE90A040C940D9400210AA806
:100F00000E94FFF7ADFA00B1FEE7FFF76DFB4FF46B
:100F10007A71B0FBF1F0FFF77DFE0420FFF76DFE64
:100F200000221146501EFFF769FA10B010BD0000F4
:100F30000D48016841F00101016041680B4A114010
:100F4000416001680A4A11400160016821F4802172
:100F50000160416821F4FE0141604FF41F0181608E
:100F60000449C00308607047001002400000FFF809
:100F7000FFFFF6FE08ED00E0FEE7C820401EFDD1B1
:100F8000704702E008C8121F08C1002AFAD1704752
:100F90007047002001E001C1121F002AFBD17047F9
:100FA0000827FFF7CFF9FFF795FFFFF7E1FE40F6BF
:100FB000B83900BF4FF0010846460A4D4046FFF7DA
:100FC00059FF00242A4631464046FFF73CFEF019FF
:100FD000641CE4B21035C6B2082CF3D34846FFF7C0
:100FE000B9F8E7E700000020000000000000000062
:100FF0000102030406070809181000080000002079
:1010000088000000820F0008A0100008880000205F
:1010100000040000920F000808F800F800F808002B
:1010200000033E013E03000010F0008080800000BD
:10103000203F210000203F200000808080800000B1
:10104000001F202020201F000000000000000000E2
:101050000000000000000000000080808000000010
:1010600000192424123F200080808080808080002E
:10107000203F20003F20003F000000000000000053
:101080000000000000000000000808F80808000048
:101090000020203F2020000000A24A0400000000A1
:04000005080000ED02
:00000001FF
